:020000040800F2
:10000000900700209D010008531B0008B916000846
:10001000511B0008D1020008D32400080000000092
:10002000000000000000000000000000451C000867
:10003000D302000800000000551B0008471C000800
:10004000B7010008B7010008B7010008B7010008B0
:10005000B7010008B7010008B7010008B7010008A0
:10006000B7010008B7010008B7010008B701000890
:10007000B7010008B7010008B7010008B701000880
:10008000B7010008B7010008B7010008B701000870
:10009000B7010008B7010008B7010008B701000860
:1000A000B7010008B7010008351D0008291D000828
:1000B000B7010008B7010008B7010008B701000840
:1000C000B7010008B7010008B7010008B701000830
:1000D000B7010008B7010008B7010008B701000820
:1000E000B7010008B7010008B7010008B701000810
:1000F000B7010008B7010008B7010008B701000800
:10010000B7010008B7010008B7010008B7010008EF
:1001100015200008B7010008B7010008B701000862
:10012000B7010008B7010008B7010008B7010008CF
:10013000B7010008B7010008B7010008B7010008BF
:10014000B7010008B7010008B7010008B7010008AF
:10015000B7010008B7010008B7010008B70100089F
:10016000B7010008B7010008B7010008B70100088F
:10017000B7010008B7010008B7010008000000003F
:10018000B7010008B7010008DFF80CD000F08EF8C6
:1001900000480047352500089007002006488047A2
:1001A00006480047FEE7FEE7FEE7FEE7FEE7FEE75C
:1001B000FEE7FEE7FEE7FEE7D51C00088901000820
:1001C0002DE9F05F0546002092469B46884606468C
:1001D000814640241BE0284641464746224600F01F
:1001E00054F853465A46C01A914110D31146184646
:1001F000224600F03BF82D1A67EB01084F462246D5
:100200000120002100F032F817EB00094E41201EBA
:10021000A4F10104DFDC484631462A464346BDE8E6
:10022000F09FD2B201E000F8012B491EFBD27047CB
:100230000022F6E710B513460A4604461946FFF7B2
:10024000F0FF204610BD10B5044604E00B7800F81E
:10025000013B03B1491C521EF8D2204610BD421C7E
:1002600010F8011B0029FBD1801A7047202A04DBFB
:10027000203A00FA02F1002070479140C2F12003B9
:1002800020FA03F3194390407047202A04DB203AF8
:1002900021FA02F00021704721FA02F3D040C2F1A6
:1002A000200291400843194670470000064C074D54
:1002B00006E0E06840F0010394E807009847103436
:1002C000AC42F6D3FFF764FFE025000800260008E3
:1002D000FEE77047704770B54379012B1AD00126AD
:1002E00046710223037105682C6840F6FE73934043
:1002F0009C43D1E900310B43934023432B600168B9
:100300000B68C0249440A3430B6006710021417127
:10031000084670BD022070BD70B5040003D020797E
:10032000002510B105E0012070BD6571204600F088
:1003300007F802202071256101202071002070BD86
:1003400010B586B0044614216846FFF771FF1149C5
:10035000206888421CD110480021026842F00052F7
:100360000260006800F0005005900B4810380268E9
:1003700042F001020260006800F0010005901020C8
:1003800000900320CDE901016946044800F05EF8C1
:1003900006B010BD0074004040380240000002402A
:1003A00018B5046800940068104421B1143000901E
:1003B0000360002018BD0830F9E730B54279012A02
:1003C00016D0012242710223037103681D6802FAEC
:1003D00001F425431D60002901680B680AD00C68F0
:1003E00003F4802304F46014B3F5802F0FD015E0DC
:1003F000022030BD0C6803F0040304F03804042B21
:100400000CD1382C0AD14B6843F0010305E0B4F558
:10041000601F03D14B6843F002034B60027100215F
:100420004171084630BD90F83510022903D0802173
:10043000416501207047052180F83510006801688A
:1004400021F0010101600020704700002DE9F84F04
:10045000DFF87CB100224FF001084FF0030A4FF0A3
:100460000F090BF1040E00BF0B6808FA02F42340D9
:10047000A3426ED14D68022D01D0122D0ED1D508A8
:1004800000EB850CDCF820505607F70E09FA07F64A
:10049000B5430E69BE402E43CCF820600668550077
:1004A0000F790AFA05FC07F0030726EA0C06AF40AD
:1004B000374307604E68012E05D0022E03D0112E5F
:1004C00001D0122E0ED18668CF6826EA0C06AF4006
:1004D000374387604668A6430C79C4F30014944000
:1004E00034434460C6688C6826EA0C06AC4034434A
:1004F000C4604C68E40065D5364C256845F48045F9
:100500002560246822F0030504F480440094324CF2
:100510002E19D6F8084895072F0F09FA07F5AC43AE
:100520002E4DA84201D1002524E02D4DA84201D135
:1005300001251FE02B4DA84201D102251AE02A4DCA
:10054000A84201D1032515E0284DA84202D1042577
:1005500010E037E0264DA84201D105250AE0254DDF
:10056000A84201D1062505E0234DA84201D1072567
:1005700000E00825BD402543C6F80858DBF80040D8
:100580005D464E689C43F60300D51C432C60DEF8A4
:10059000004075464E689C43B60300D51C432C6052
:1005A0000B4D08352C684E689C43F60200D51C4361
:1005B0002C60074D0C352C684E689C43B60200D564
:1005C0001C432C60521C102AFFF44EAFBDE8F88F7C
:1005D000003C01404438024000300140000002402D
:1005E0000004024000080240000C024000100240DB
:1005F0000014024000180240001C0240426931EA27
:10060000020200D10904816170470AB1816170471B
:100610000904FBE70148806870470000540000208F
:1006200002488168027811448160704754000020BC
:100630000B4810B5016841F400710160016841F494
:1006400080610160016841F480710160032000F065
:100650006FF8002000F006F800F024F8002010BD2C
:10066000003C024070B50D4D04464FF47A71287875
:10067000B1FBF0F00A490968B1FBF0F000F002FCB0
:1006800048B9102C07D200222146501E00F030F845
:1006900000206C6070BD012070BD0000540000207F
:1006A000600000200A4808B5016841F480410160FB
:1006B000006800F4804000900548001F016841F088
:1006C00080510160006800F08050009008BD00007B
:1006D00044380240002809DB00F01F02012191404C
:1006E0004009800000F1E020C0F8001170470000D0
:1006F000F0B40E4B1B680C46C3F30223C3F107058D
:10070000042D00D90425191D072901D2002300E07A
:10071000DB1E012606FA05F1491E214099409E4044
:10072000761E16403143F0BC01F0D4BE0CED00E063
:10073000064900F0070208684FF6FF03184040EA38
:100740000220034A10430860704700000CED00E0EF
:100750000000FA052DE9F0470E46050065D0DFF8E8
:100760001481D8F80000F7B200F00F00B04207D2B1
:1007700088F80070D8F8000000F00F00B04254D1A3
:1007800028683D4C810712D5400703D5206840F406
:10079000E05020602878000703D5206840F46040CE
:1007A00020602068A96820F0F000084320602878C5
:1007B000C0072DD0304968680839012812D00228B6
:1007C00013D0032811D00968890700292DDA216880
:1007D00021F0030101432160FFF71CFF814641F234
:1007E000883A0EE009688903EFE709688901ECE7B8
:1007F000FFF710FFA0EB0901514502D90320BDE826
:10080000F0872068696800F00C00B0EB810FEFD131
:10081000D8F80010404601F00F01B14207D9077027
:10082000006800F00F00B04201D00120E7E728780F
:10083000400705D52068E96820F4E05008432060AF
:100840002878000706D52068296920F4604040EA2E
:10085000C100206000F036F82168084AC1F3031196
:10086000515CC840064908600020FFF7FBFE0020ED
:10087000C5E70000003C024008380240C8250008D7
:10088000600000200448054900680968044AC1F373
:100890008221515CC8407047600000200838024047
:1008A000D82500080448054900680968044AC1F3CE
:1008B0004231515CC8407047600000200838024057
:1008C000D8250008154810B5006810F00C0214482F
:1008D00013D04110042A0FD0082A0ED10F4C241F28
:1008E0002268236802F03F025B0207D52068C0F34C
:1008F0008810A0FB010106E0084610BD2168C1F385
:100900008811A1FB00010023FFF75AFC2168C1F305
:100910000141491C4900B0FBF1F010BD083802400C
:100920000024F4002DE9F84F050076D02878DFF890
:10093000F8B2BE4CC00749D0DBF800105846C1F3EE
:100940008101012908D00068C0F3810002280AD182
:10095000201D0068400206D52068800336D56868EF
:100960000028E2D032E06868B0F5803F10D0B0F5E2
:10097000A02F206810D020F480302060206820F460
:10098000802020606868A0B1FFF744FE06460CE0B6
:10099000206840F48030F4E740F480202060F7E7DE
:1009A000FFF738FE801B642873D820688003F7D5D2
:1009B0000CE0FFF72FFE064605E000BFFFF72AFE1A
:1009C000801B6428F0D820688003F7D42878DFF8EB
:1009D000608280074FF000093ED5DBF800105846D2
:1009E00011F00C0F09D00068C0F3810002280BD170
:1009F0008D48001F0068400206D42068800715D586
:100A0000E868012809D111E0E868B8B10120C8F808
:100A10000000FFF7FFFD064605E002E1FFF7FAFDE3
:100A2000801B0228C0D820688007F7D52068296974
:100A300020F0F80040EAC10020600DE0C8F8009006
:100A4000FFF7E8FD064604E0FFF7E4FD801B0228FF
:100A50001FD820688007F7D42878000722D5724E67
:100A6000744869696C3671B101210160FFF7D2FDEC
:100A7000074604E0FFF7CEFDC01B022809D8306806
:100A80008007F7D50EE0C0F80090FFF7C3FD0746DA
:100A900005E083E0FFF7BEFDC01B02287ED830686A
:100AA0008007F7D42878400768D5DFF87CA10027B5
:100AB0000AF1380ADAF80000C0000BD4DAF80010A6
:100AC00041F08051CAF80010DAF80000012700F068
:100AD00080500090584E3068C00510D4306840F403
:100AE00080703060FFF796FD009005E0FFF792FD03
:100AF0000099401A022851D83068C005F6D54A4EF0
:100B0000A868683601280FD00528306810D020F07A
:100B100001003060306820F004003060A868B8B18F
:100B2000FFF778FD00900FE0306840F00100F4E737
:100B300040F004003060F7E7FFF76CFD0099411AC0
:100B400041F28830814264D830688007F4D50EE0E5
:100B5000FFF760FD009007E0FFF75CFD0099411A88
:100B600041F28830814254D830688007F4D42FB1E4
:100B7000DAF8001021F08051CAF80010A869C0B35B
:100B8000DBF80010C1F3810102294AD0022848464F
:100B900007D0C8F86000FFF73DFD00E039E00546EA
:100BA0003AE04746C8F86000FFF734FD064604E027
:100BB000FFF730FD801B02282BD820688001F7D476
:100BC000D5E907010843A96A1C4A490802EB01411B
:100BD0006A6A41EA8211084395F82C1040EA0161E3
:100BE0001148001F016001203866FFF713FD05461C
:100BF00005E014E0FFF70EFD401B022809D820682D
:100C00008001F7D50BE000BFFFF704FD401B022871
:100C100002D90320BDE8F88F20688001F4D40020B9
:100C2000F8E70120F6E700000838024000380240EB
:100C300000004742800E4742007000400000FFFF66
:100C400070B5040005D00025A56294F8510010B1DC
:100C500006E0012070BD84F85050204600F030F8C6
:100C6000022084F851002068016821F040010160F1
:100C7000D4E901010843D4E903121143084361692F
:100C80000843218B01F400710843E1690843216A9C
:100C90000843A16A084321680860A069042101EAA9
:100CA0001040616A0843216848602068C16921F4E6
:100CB0000061C1616565012084F85100002070BDAC
:100CC00010B586B0044614216846FFF7B1FA1349FF
:100CD0002068884220D112480021026842F48052E4
:100CE0000260006800F4805005900D4814380268D6
:100CF00042F001020260006800F001000590A020AF
:100D000000900220CDE9010103200390052004900A
:100D100069460448FFF79AFB06B010BD0030014059
:100D200044380240000002402DE9F84F044690F894
:100D3000500000271D461646894601280DD04FF069
:100D4000010B84F850B0FFF765FC804694F8510021
:100D5000BA46012804D002278EE00220BDE8F88FB1
:100D6000B9F1000F7DD0002E7BD0032084F8510014
:100D7000C4F854A0C4F83090A686E686C4F838A01B
:100D8000A4F83CA0A4F83EA0C4F844A0C4F840A035
:100D9000A068B0F5004F04D12068016841F480419B
:100DA000016020680168490603D4016841F04001F0
:100DB0000160E068B0F5006F606803D030B3012EC9
:100DC00024D040E008B1012E1CD1206B216800889E
:100DD000C86006E020688168890709D5216B098809
:100DE000C160206B801C2063E08E401EE08609E01D
:100DF000FFF710FCA0EB0800A84202D3681C01D04A
:100E000031E07DB3E08E0028E4D11FE0206B216843
:100E10000078087306E020688168890709D5216B8E
:100E200009780173206B401C2063E08E401EE08631
:100E300009E0FFF7EFFBA0EB0800A84202D3681C13
:100E400001D010E075B1E08E0028E4D14246294679
:100E5000204600F081FE08B120206065A06820B126
:100E600007E008E0FFE7032706E02068C168806824
:100E70000090606D00B1012784F851B084F850A053
:100E800038466BE710B5401EB0F1807F01D30120DA
:100E900010BD4FF0E02460610F21601701F01AFBD4
:100EA0000020A06107202061002010BD704770471E
:100EB00010B590F83C20012A22D0012280F83C2075
:100EC000CA688C6822F4407222434C6822F4806223
:100ED00022430C6822F4006222430C6922F48052FF
:100EE00022434C6922F400522243C969002322F4B0
:100EF00080420A4301684A6480F83C30002010BDFB
:100F0000022010BD70B590F83C20012A19D00124B0
:100F100000F83C4F0222427050F83C3C5A689D68F1
:100F200022F070060A684968324325F0800529439B
:100F30005A6050F83C2C91604470002101700846C2
:100F400070BD022070BD10B5040003D094F83D00C0
:100F500010B107E0012010BD002084F83C002046BD
:100F600000F00CF8022084F83D00211D206800F0FC
:100F7000E7FE012084F83D00002010BD08B50068A0
:100F80000F4988421AD10F48016841F00101016000
:100F90000068002200F00100009011461A20FFF7BF
:100FA000A7FB1A20FFF796FB002211461B20FFF734
:100FB0009FFBBDE808401B20FFF78CBB08BD00006D
:100FC000000001404438024070B5044690F83C00EF
:100FD000012817D0012584F83C50022084F83D00F8
:100FE0002068826822F0770222F47F4282600868DB
:100FF000502830D00DDC20284DD005DC98B31028C7
:101000003BD148E0022070BD302844D0402834D184
:1010100039E0602828D0702806D0B0F5805F2CD049
:10102000B0F5005F29D10AE0CB68D1E90121206841
:1010300000F0F7FE2068816841F0770109E0CB6895
:10104000D1E90121206800F0ECFE2068816841F4BC
:101050008041816011E0CA684968206800F0B6FFED
:101060005021206807E016E0CA684968206800F04F
:10107000BEFF6021206800F0DEFE84F83D500020B5
:1010800084F83C0070BDCA684968206800F09EFF83
:1010900040212068EFE7226801461046EBE77047E1
:1010A00070B50446006801694FF00005C94389071F
:1010B00015D4C168C943890711D4E91E0161012013
:1010C0002077206880698007204602D0FFF7E7FF7D
:1010D00004E000F0C3F8204600F018F925772068F6
:1010E0000169C943490717D4C168C943490713D4E3
:1010F0006FF004010161022020772068806910F4FC
:10110000407F204602D0FFF7CAFF04E000F0A6F8B7
:10111000204600F0FBF8257720680169C9430907DC
:1011200016D4C168C943090712D46FF008010161E0
:10113000042020772068C0698007204602D0FFF78E
:10114000AEFF04E000F08AF8204600F0DFF82577D3
:1011500020680169C943C90617D4C168C943C906D3
:1011600013D46FF010010161082020772068C06956
:1011700010F4407F204602D0FFF791FF04E000F01A
:101180006DF8204600F0C2F8257720680169C94350
:10119000C90708D1C168C943C90704D1891E0161C3
:1011A000204600F0E5F820680169C943090609D422
:1011B000C168C943090605D46FF08001016120466A
:1011C000FFF774FE20680169C943490609D4C16864
:1011D000C943490605D46FF040010161204600F083
:1011E000C8F820680169C94389060BD4C168C9439E
:1011F000890607D46FF0200101612046BDE87040E8
:10120000FFF755BE70BD70B5044690F83C0001284C
:101210000DD0012584F83C50022084F83D0042B1F5
:10122000042A0AD0082A0CD00C2A11D10DE0022081
:1012300070BD206800F008FE0AE0206800F034FE6F
:1012400006E0206800F066FE02E0206800F096FEEE
:1012500084F83D50002084F83C0070BD704710B504
:10126000040003D094F83D0010B107E0012010BD48
:10127000002084F83C00204600F00CF8022084F89E
:101280003D00211D206800F05BFD012084F83D0039
:10129000002010BD7047000010B50268044631B14F
:1012A000042908D0082925D00C2908D126E0D068C7
:1012B00040F0020002E0D06840F00400D06001225B
:1012C000206800F0A1FD0F492068884202D00E4935
:1012D000884203D1416C41F4004141642068816837
:1012E00001F00701062903D0016841F00101016006
:1012F000002010BDD06840F00800DFE7D06840F063
:101300001000DBE7000001400004014010B5007F41
:1013100001280FD1134CC1031348A2685AB1012A06
:101320000ED0022A14D011480068824216DA02F167
:101330000102A26010BDFFF761F900F0A3FA03E01B
:10134000FFF75CF900F032FAA068401CA06010BD05
:101350000320A060BDE8104000F026BAF7D14FF09E
:101360000000F3E7000000200004024044000020D9
:10137000704770477047000070B5026804461068F7
:10138000D168536910F00F0F50D003F0010501F43C
:10139000907635435DD0C20705D0CA0503D5E26B10
:1013A00042F00102E263420705D5DA0703D0E26B9F
:1013B00042F00202E263820705D5DA0703D0E26B4E
:1013C00042F00402E263020705D5DA0703D0E26BBC
:1013D00042F00802E263E26B002A33D0800604D5B3
:1013E000880602D5204600F03BFE20684069E16B8C
:1013F000C0F38010090700D428B3204600F022FE75
:101400002068416949061AD5416921F040014161CE
:10141000606BA0B11B490165606BFFF704F8002801
:1014200010D0606B016DBDE870400847830610D591
:101430008B060ED52046BDE8704000F011BE204658
:10144000FFF798FF70BD2046FFF794FF0020E06390
:1014500070BD030606D50B0604D52046BDE87040D6
:1014600000F0D4BF4006F3D54806F1D5D168204638
:1014700021F04001D160202184F8391000F01BF9DF
:1014800070BD00003520000870B5040004D094F849
:101490003900002510B106E0012070BD84F83850F5
:1014A000204600F023F8242084F839002068C16821
:1014B00021F40051C160204600F042FE206801691D
:1014C00021F4904101612068416921F02A014161C4
:1014D0002068C16841F40051C160E563202084F8B0
:1014E000390084F83A00002070BD000010B586B0C5
:1014F000044614216846FEF79BFE1749206888427F
:1015000027D11648016841F400210160006800F409
:101510000020059011481038016841F00101016078
:101520000068022100F0010005900320CDE90001D0
:101530000121CDE902100820049069460848FEF711
:1015400085FF002211463420FFF7D2F83420FFF740
:10155000C1F806B010BD0000004C00404038024009
:101560000000024090F83A30202B22D1F9B1F2B1BC
:1015700090F83830012B1CD081628285C285002111
:10158000C163222280F83A2080F838100168CA68C6
:1015900042F48072CA6001684A6942F001024A61FD
:1015A0000068C16841F02001C1600020704701203F
:1015B000704702207047000070B50E4C0E4A00259F
:1015C000606821780228115403DD0D2907D00A290B
:1015D00005D0401C6060FF2800DD656070BD00F034
:1015E0008BFD6560BDE870404FF480710248FEF7E6
:1015F0001FBE000000000020640000202DE9F84319
:10160000044690F839001F4616460D46202850D152
:10161000A5B19EB194F8380001284AD0012084F881
:1016200038004FF00008C4F83C80212084F83900CD
:10163000FEF7F0FFA6848146E68426E00120BDE89F
:10164000F883E08C401EE084A0684B46B0F5805FD4
:101650004FF000024FF080012046009703D000F0C9
:1016600006FFE8B90DE000F002FFC8B9288821683C
:10167000C0F308004860206908B16D1C05E0AD1C8E
:1016800003E0216815F8010B4860E08C0028D8D1F0
:101690004B46002240212046009700F0E8FE08B1AA
:1016A0000320CCE7202084F8390084F8388000201B
:1016B000C5E70220C3E77047FEE700000B490C4A6C
:1016C0008D208860106A8D235843086192ED0C0AC2
:1016D000F8EEC00A00EE100AB8EEC00A80EE201A3A
:1016E000BDEEC10A81ED030A70470000140000201E
:1016F00064020020084B10B50021196007494A69AF
:1017000022F0F0024A6102884C698078A4B220433A
:101710001A60486110BD0000140C02400010024025
:10172000194800219FED191A194A416380ED011AE9
:1017300092ED090AF7EE001AB8EEC00AC1EE800A6F
:101740009FED140A20EE800ABDEEC00A80ED0E0A5D
:10175000D2ED0A0AB8EEC00AC0EE811A30EE600A75
:10176000BDEEC00A80ED0F0AB8EEC00ABDEEE11A68
:1017700080ED0B1A80EE201ABDEEC10A80ED0C0A36
:101780008162012101707047140000200000803D3B
:1017900064020020002474493223014603220148D8
:1017A000FFF7C2BAB4020020704700002DE9F041F3
:1017B000324C0025324E606B012818D006F1180714
:1017C000022830D0032841D004280ED1606A401C82
:1017D0006062716B814201DC01206063A06A401C81
:1017E000A062B16B814200DC2570BDE8F081A16987
:1017F000491CA161E0684843606100F069F8204835
:101800001B300746FFF776FF00F072F8306BA169D6
:10181000884203DCA5610220256260633846BDE88A
:10182000F041FFF7B9BF00F063F83846FFF762FFF9
:101830003846FFF7B1FF206A401C2062F16A8142FE
:10184000D3DC25620320E5616063CEE7606900F0C8
:101850003FF800F04DF83846FFF74CFF3846FFF7E9
:101860009BFF316BE069814204DCA56125620421A4
:1018700065626163401CE061B7E70000140000206E
:101880006402002010B51049104C08464A6BC0682D
:10189000012A14D0022A08D0032A13D1CB690A697D
:1018A00000FB1320486100F013F800F021F82046F7
:1018B000FFF720FF2046BDE81040FFF76DBF8A69A3
:1018C0005043EFE710BD0000140000207F0200200D
:1018D00010B5044600210548FEF76FFD234600229F
:1018E000BDE8104011460148FEF75ABDA002002095
:1018F000012211460148FEF788BE000000080240A0
:1019000010B5FFF70DFFFFF7D9FE094C012060630A
:101910000020A061E06860610648FFF73DFFD4E960
:101920000B0100F009F8BDE81040FFF7ABBF000065
:10193000140000207C02002070B596B000240D46F3
:1019400006460F9410941194129413941C21684627
:101950001494FEF76DFC202107A8FEF769FC3048BF
:101960002E49C0E900160126C0E902468021046123
:10197000C0E90541FFF7E7FA08B1FEF7ABFC4FF409
:1019800080500F900FA92648FFF71EFB08B1FEF705
:10199000A1FC2348FFF763FC08B1FEF79BFC202065
:1019A000CDE9130413A91E48FFF7ACFA08B1FEF7FE
:1019B00091FCCDE90046029403940494059400221E
:1019C000694617480694FFF71EFC08B1FEF782FC33
:1019D0006D1ECDE9004502940394049405940422FD
:1019E00069460F480694FFF70EFC08B1FEF772FC3B
:1019F0000794089409944FF400500A94CDE90B40E1
:101A000007A907480E94FFF753FA08B1FEF762FCE6
:101A100000210348FFF740FC16B070BD00000140F4
:101A20004C0300202DE9F04F87B014216846FEF7E3
:101A3000FFFB35480024016841F080010160016826
:101A400001F080010591016841F004010160016825
:101A500001F004010591016841F001010160016894
:101A600001F001010591016841F010010160016878
:101A700001F010010591016841F008010160006862
:101A8000DFF8889000F00800059000221D214846EC
:101A9000FEF7BBFDDFF878A04FF47F470022394600
:101AA0005046FEF7B2FDDFF86CB04FF6FF7800222B
:101AB00041465846FEF7A9FD052000900125CDE9D5
:101AC0000154694648460394FEF7C0FC18200226DC
:101AD000CDE90005CDE9024669464846FEF7B6FC69
:101AE00000970396CDE9015469465046FEF7AEFCD7
:101AF000CDF800800396CDE9015469465846FEF7BB
:101B0000A5FC07B0BDE8F08F303802400008024065
:101B100000100240000C02400C480B494FF40072C8
:101B200001604FF48271416000218160C1600161F8
:101B3000C0E905123822C0E90721416281620A2109
:101B4000C162FFF77DB8000000300140B402002000
:101B5000FEE770477047000038B504461248134B43
:101B60000068B0FBF3F04FF47A735843009060685C
:101B7000B0F5827F0DD10B460092002280212046D5
:101B800000F016F870B1606D40F020006065032031
:101B900038BD009830B1401E009020688068C04376
:101BA0000006F6D5002038BD6000002000366E012A
:101BB0002DE9F0411D4617460E460446DDF8188013
:101BC00008E0681C06D0FEF725FDA0EB0800A8423F
:101BD0000BD255B12068806836EA000030D0002072
:101BE000B842EED10020BDE8F0812068416821F0C4
:101BF000E00141606068B0F5827F0BD1A068B0F56C
:101C0000004F02D0B0F5806F04D12068016821F048
:101C100040010160A06AB0F5005F09D12068016849
:101C200021F4005101602068016841F40051016015
:101C3000012084F85100002084F850000320D2E7EE
:101C40000120CDE77047FEF7EBBC000030B593B044
:101C500030216846FEF7ECFA14210CA8FEF7E8FAEA
:101C60001A480025016841F080510160006800F0C9
:101C7000805011901648016841F48041016000686D
:101C8000022400F480401190012000900004019093
:101C90008001CDE90640082008904FF4A870CDE9F6
:101CA000090404200B906846FEF73CFE0CA90F20A7
:101CB00081E831004FF4A0500F90E0021090052110
:101CC0000CA8FEF747FD13B030BD000040380240BD
:101CD000007000401048016841F4700101600F4835
:101CE000016841F0010101600C4A002108321160D5
:101CF00002680B4B1A400260031D0A4A1A60026810
:101D000022F48022026005480C3001600249580626
:101D1000803908607047000088ED00E0003802401C
:101D2000FFFFF6FE103000240148FFF7B9B90000AC
:101D30004C0300200148FFF7B3B900004C0300201A
:101D4000F0B50268254C264D264E274F274B4FF005
:101D5000804CA04209D0604507D0A84205D0B042CF
:101D600003D0B84201D0984204D122F0700E4A68E4
:101D700042EA0E02A0421BD0604519D0A84217D0FB
:101D8000B04215D0B84213D0984211D0184DA84295
:101D90000ED0184DA8420BD0174DA84208D0174DB1
:101DA000A84205D0164DA84202D0164DA84203D134
:101DB00022F44075CA682A434D6922F080022A4302
:101DC00002608A68C2620A688262A04201D09842B8
:101DD00001D10969016301214161F0BD00000140A9
:101DE0000004004000080040000C004000040140D6
:101DF00000400140004401400048014000180040FC
:101E0000001C00400020004010B501F01F0301211C
:101E1000046A99408C430462016A9A40114301624A
:101E200010BD10B5846842EA032224F47F440A43BB
:101E30002243826010BD826822F070020A4342F0A1
:101E40000701816070470000F0B5026A22F00102CC
:101E50000262036A42688469124E24F073050C68BA
:101E60002C4323F002058B682B430D4DA84201D073
:101E7000B04205D123F00807CB683B4323F00403AD
:101E8000A84201D0B04205D14D6922F440721543F9
:101E90008A692A4342608461496841630362F0BDF4
:101EA0000000014000040140F0B5026A22F0100277
:101EB0000262026A436884690D6824F4E64444EAD5
:101EC00005248D6822F0200242EA05120F4D104EC3
:101ED000A84201D0B04206D1CF6822F0800242EA87
:101EE000071222F04002A84201D0B04207D14D694A
:101EF00023F4406343EA85038D6943EA8503436025
:101F00008461496881630262F0BD00000000014005
:101F100000040140F0B5026A22F480720262026A93
:101F20004368C46922F4007224F073050C68124EF1
:101F30002C438D6842EA05220E4DA84201D0B042E2
:101F400006D1CF6822F4006242EA072222F48062BE
:101F5000A84201D0B04207D14D6923F4405343EA6F
:101F600005138D6943EA05134360C4614968C16381
:101F70000262F0BD000001400004014030B5026A79
:101F800022F480520262046A4268C3690D6823F435
:101F9000E64343EA05238D6824F4005444EA0534FB
:101FA000084DA84202D0084DA84204D14D6922F440
:101FB000804242EA85124260C3614968016404625A
:101FC00030BD0000000001400004014010B5036A6C
:101FD000046A24F001040462846924F0F00444EAF1
:101FE000021423F00A020A438461026210BD10B594
:101FF000036A23F0100303628369046A23F47043C5
:1020000043EA023224F0A00343EA01118261016233
:1020100010BD000010B50548FFF7AEF9BDE810404F
:10202000012203490148FFF79DBA00000C0300207C
:102030000000002010B5806B0021C185C184FFF72E
:1020400099F910BD0168CA6822F49072CA600168EB
:102050004A6922F001024A61202180F83A10704753
:1020600010B590F83A10222901D0022010BD8168E5
:10207000B1F5805F11D00169002901681FD049685E
:1020800001F07F03816A4A1C82620B70C18D491E78
:102090000904090CC18518D02BE00269816A002A65
:1020A0000268526805D0D2B20A80816A491C8162F6
:1020B000ECE7C2F308020A80816A891CF7E74A68E4
:1020C000816A4B1C83620A70E0E70168CA6822F0EB
:1020D0002002CA600168CA6822F48072CA6001687E
:1020E0004A6922F001024A61202180F83A10FFF784
:1020F00063FA002010BD000010B54FF48074214633
:102100000C48FEF795F80C48FEF7A9F802460A4974
:102110000848FEF798F800F069F921460548FEF7EF
:1021200087F8052205490348FEF78DF8BDE8104001
:1021300000F05CB964010020640000200C00002065
:102140002DE9F041044600680169E26821F440513C
:10215000114301612169A068E26908436169114383
:1021600022680843D16849F20C6399430143D16066
:1021700020684169A26921F4407111434161E2691B
:102180006425B2F5004F9748974922684FF032080E
:102190003FD08A4201D082427CD1FEF783FB00EB24
:1021A000C00101EB001061688900B0FBF1F6FEF799
:1021B00079FB00EBC00101EB001061688900B0FB06
:1021C000F1F0B0FBF5F06FF01801484306EB800129
:1021D00008EB0110B0FBF5F000F0F006FEF762FB33
:1021E00000EBC00101EB001061688900B0FBF1F069
:1021F000B0FBF5F006EB0016FEF754FB00EBC00158
:1022000001EB001061688900B0FBF1F7FEF74AFBB3
:10221000D2E08A4201D082423DD1FEF743FB00EB7F
:10222000C00101EB001061684900B0FBF1F0B0FBA8
:10223000F5F00601FEF736FB00EBC00101EB0010E4
:1022400061684900B0FBF1F7FEF72CFB00EBC00121
:1022500001EB001061684900B0FBF1F0B0FBF5F054
:102260006FF01801484307EB800108EBC100B0FB99
:10227000F5F000F0F80006EB4006FEF713FB00EB6C
:10228000C00101EB001061684900B0FBF1F7FEF7F7
:1022900009FB3CE055E0FEF7F5FA00EBC00101EB6D
:1022A000001061684900B0FBF1F0B0FBF5F00601E9
:1022B000FEF7E8FA00EBC00101EB0010616849008D
:1022C000B0FBF1F7FEF7DEFA00EBC00101EB001006
:1022D00061684900B0FBF1F0B0FBF5F06FF0180158
:1022E000484307EB800108EBC100B0FBF5F000F0BC
:1022F000F80006EB4006FEF7C5FA00EBC00101EB63
:10230000001061684900B0FBF1F7FEF7BBFA00EB83
:10231000C00101EB001061684900B0FBF1F0B0FBB7
:10232000F5F06FF01801484307EB800108EBC1009E
:10233000B0FBF5F000F00700216830448860BDE88C
:10234000F081FEF79FFA00EBC00101EB001061681D
:102350008900B0FBF1F6FEF795FA00EBC00101EB46
:10236000001061688900B0FBF1F0B0FBF5F06FF090
:102370001801484306EB800108EB0110B0FBF5F0B3
:1023800000F0F006FEF77EFA00EBC00101EB001052
:1023900061688900B0FBF1F0B0FBF5F006EB0016C8
:1023A000FEF770FA00EBC00101EB001061688900D4
:1023B000B0FBF1F7FEF766FA00EBC00101EB00108D
:1023C00061688900B0FBF1F0B0FBF5F06FF0180127
:1023D000484307EB800108EB0110B0FBF5F000F07B
:1023E0000F00A9E7001401400010014010B5054896
:1023F000FDF735FF82B2BDE810400A2301490248CB
:10240000FFF7FCB8640100200C03002090F839109D
:10241000212901D0022070478168B1F5805F016AEF
:102420000BD04A1C0262026809785160C18C491EB7
:102430000904090CC1840ED017E009880268C1F3B1
:102440000801516001690029016A02D0491C01623A
:10245000ECE7891CFBE70168CA6822F08002CA60C9
:102460000068C16841F04001C160002070472DE95B
:10247000F041984617460E460446069D1DE0681C2E
:102480001BD02DB1FEF7C6F8A0EB0800A84214D966
:102490002068C16821F4D071C1602068416921F0D1
:1024A00001014161202084F8390084F83A000020BD
:1024B00084F838000320BDE8F0812068006836EA1F
:1024C000000004D00020B842D9D00020F3E701205A
:1024D000F9E7FEE70907090E002804DB00F1E02018
:1024E00080F80014704700F00F0000F1E02080F841
:1024F000141D704702E008C8121F08C1002AFAD153
:1025000070477047002001E001C1121F002AFBD173
:102510007047000006480168CA6842F02002CA609D
:102520000068C16841F04001C16000F035F8FEE785
:102530000C0300201CB5FEF77BF8FFF787FBFFF7C5
:1025400071FA00241249009410480194086008466A
:10255000FDF7E2FE0094002269460D480194FDF764
:10256000BAFE0B480B496C3001604FF4E131C0E911
:1025700001140C21C460C0E904418461C461FEF708
:1025800083FFFFF7C9FAFFF7C5FFFEE700740040BD
:10259000A0020020004C0040094819219FED090AC3
:1025A000016280ED0A0A4FF47A728263642141620B
:1025B0001422C0E90B1289004163FFF7A1B90000A2
:1025C00064020020000048430000000000000000FA
:1025D00001020304060708090000000001020304C9
:1025E000002600080000002064000000F424000819
:1025F00064260008640000202C0700000425000861
:102600000000000000000000000000006F6B0D0AD9
:10261000000000000000000000000000202C6B08FB
:1026200000000000000000000000000000000000AA
:10263000000000000000000000000000000000009A
:10264000000000000000000000000000000000008A
:102650000000000001000000100000000000000069
:042660000024F4005E
:040000050800018965
:00000001FF
